S01100005461736B31343034612E7372656356
S214080000C8240720B5100800B1100800B110080071
S214080010B1100800B1100800B11008000000000078
S214080020000000000000000000000000B1100800FA
S214080030B110080000000000B1100800B110080058
S214080040B1100800B1100800B1100800B11008007F
S214080050B1100800B1100800B1100800B11008006F
S214080060B1100800B1100800000000007D0E08005E
S214080070990E0800B50E0800D10E08000000000012
S21408008000000000B1100800B1100800B110080008
S214080090B1100800B1100800B1100800B11008002F
S2140800A0B110080000000000B1100800451508004F
S2140800B0B1100800B1100800B1100800B11008000F
S2140800C0B1100800B1100800B1100800B1100800FF
S2140800D0B1100800B1100800B1100800B1100800EF
S2140800E0B1100800B1100800B1100800B1100800DF
S2140800F0B110080008B50548054B191A062900D896
S21408010008BD044A002AFBD09047F9E70017080004
S214080110031708000000000008B50748074B191A1F
S2140801208A1002EBD273591000D108BD044A002A7F
S214080130FBD09047F9E700BF001708000017080033
S2140801400000000010B5064C237843B9FFF7D2FF2D
S214080150044810B10448AFF300800121217010BD97
S21408016038040720000000000017080008B5084BF0
S2140801701BB108480849AFF300800848016811B168
S214080180074A02B19047BDE80840FFF7C5BF00BF61
S21408019000000000001708003C04072000170800AD
S2140801A00000000038B54FF0250041F22D03C0F2DC
S2140801B0080398474FF00004C4F20C0420464FF496
S2140801C0F441C0F6032144F24022C0F20F024FF079
S2140801D0080340F23525C0F20805A84720464FF028
S2140801E000014FF440124FF0010340F29525C0F28B
S2140801F00805A84720464FF0000140F27522C0F2D5
S2140802000802904720464FF0070140F2BD23C0F28F
S2140802100803984720464FF000010A4640F2852317
S214080220C0F208039847204640F2B521C0F20801FC
S214080230884738BD30B44FF0010404604FF000041E
S214080240446040F20225C0F82051C0F80441C0F8C6
S214080250144145682B434FEA4202B1FBF2F101F123
S214080260FF324FEA026143EA11434360204630BC3E
S214080270704700BF436823F0100242604368194382
S21408028041607047436819434FEAC212D3B2194314
S2140802904160704710B4446822434FEA016101F098
S2140802A0706422434FEA037303F040510A434260E6
S2140802B010BC70474FF00203036070474FF001030D
S2140802C003FA01F101617047006A704710B44FEAFB
S2140802D0811143184FF0020444504FF0FF309862E3
S2140802E0196A5A6010BC7047C0F8C410704700BF3F
S2140802F04FEA81114FF00503435070474FEA8111CA
S2140803004FF002034350704700EB811108697047AD
S21408031000EB8111CA61704700EB81114A62704791
S21408032000EB8111086A704770B487B04FF002047A
S21408033001944FF0080502954FF0200403944FF0FF
S214080340800504950A9C4FEAD43405944FEA514533
S214080350B0EB510F3ED8A84251D24FF00806B1FB79
S214080360F6F54FEA1546A84237D8B0421ED24FF0E7
S2140803702005B1FBF5F54FEA1546A84230D8B0423D
S21408038017D24FF08006B1FBF6F54FEA1546A8429D
S21408039029D8B04210D2B1FBF4F14FEA1144814299
S2140803A024D3844298BF04212BD922E04FF00101C0
S2140803B027E04FF0020124E04FF0030121E006ACED
S2140803C004EB810050F8140C1060ABB119604FF0C4
S2140803D0010019E04FF0000016E04FF0000013E0AF
S2140803E04FF0000010E04FF000000DE04FF0000066
S2140803F00AE04FF0000007E04FF0010004E04FF07D
S2140804000001002ADBD1E0E707B070BC704700BFE8
S21408041030B585B04FF01D0041F22D03C0F2080339
S21408042098474FF43D45C0F2015500954AF64440BA
S214080430294603AA02AB40F22934C0F20804A047B2
S2140804404FF40044C4F2080420464FF00201029A12
S21408045042F4804240F2CD23C0F20803984703983E
S214080460B5FBF0F54CF23B61CBF63761A1FB051204
S21408047020464FF002014FEAD23240F21133C0F262
S214080480080398474FF46140CEF200004FF0005141
S214080490016020464FF002014FF0100240F2193377
S2140804A0C0F20803984720464FF0020140F2F122B6
S2140804B0C0F20802904705B030BD00BF2DE9F041F4
S2140804C084B007460D4641F2C463C0F208036C4682
S2140804D0186859689A68DB680FC404EB171010F898
S2140804E0101C4FEAC1564FEA01135FFA83F83DB174
S2140804F04FF49052C4F20E024FF48000106306E0E8
S2140805004FF49055C4F20E054FF480046C6306F061
S214080510F0614FF49054C4F20E0421636FEA0606A5
S21408052006F0F06363634FF4001626634FF001008D
S21408053040F60D15C0F20805A84766634FF064003C
S214080540A84707F00F0704AAD01910F8101C4FEA9E
S214080550C15308EB0107FFB203F0F06222636FEAAB
S214080560030000F0F061616326634FF00100A847BE
S21408057066634FF06400A847384604B0BDE8F081CB
S2140805802DE9F0474FF49054C4F20E044FF4800758
S2140805902761C4F8A0704FF400152561C4F8A05070
S2140805A04FF0F0632361C4F8A030656347F230501B
S2140805B040F60D16C0F20806B04767634FF0806A2B
S2140805C0C4F830A04FF00079C4F830904FF0807827
S2140805D0C4F834804FF40007676325634FF00100C2
S2140805E0B047656341F20400B047C4F830A0C4F8C9
S2140805F03090C4F83480676325634FF00100B04735
S21408060065634FF06400B047C4F830A0C4F8309073
S214080610C4F83480676325634FF00100B04765630C
S2140806204FF06400B047C4F834A0C4F83090C4F85B
S2140806303480676325634FF00100B04765634FF069
S2140806406400B0474FF028004FF0000140F2BD4468
S214080650C0F20804A0474FF008004FF00001A0477A
S2140806604FF001004FF00001A04740F6B830B04701
S2140806704FF006004FF00001A0474FF00F004FF074
S2140806800001A0474FF00100BDE8F08708B54FF01D
S21408069001004FF0000140F2BD43C0F2080398473E
S2140806A008BD00BF70B504464FF020004FF00101AA
S2140806B040F2BD45C0F20805A84744F6D356C1F235
S2140806C06206A6FB04304FEA901606F13001C8B25F
S2140806D04FF00101A8474FF47A7202FB164348F21E
S2140806E01F56C5F2EB16A6FB03304FEA501101F170
S2140806F03001C8B24FF00101A847A6FB04324FEA02
S21408070052134FF0640606FB13404CF6CD46CCF663
S214080710CC46A6FB00314FEAD10202F13002D0B235
S2140807204FF00101A847A6FB04304FEAD00303EBBD
S2140807308306A4EB460404F13001C8B24FF0010169
S214080740A84770BD10B54FF008004FF0000140F202
S214080750BD44C0F20804A0474FF001004FF0000166
S214080760A04740F6B83040F60D13C0F20803984785
S2140807704FF006004FF00001A0474FF00F004FF073
S2140807800001A0474FF0010010BD00BF2DE9F04161
S21408079006464FF01B0040F68504C0F20804A04742
S2140807A041F23008C4F20E08C8F80000304640F699
S2140807B00D15C0F20805A8474FF01B00A04741F2E8
S2140807C03407C4F20E0738603046A8474FF01B00BF
S2140807D0A047C8F800003046A8474FF01B00A047BF
S2140807E038603046A8474FF01B00A047C8F80000FE
S2140807F03046A8474FF01B00A0473860BDE8F08198
S2140808002DE9F843804600EB40094FF01B0040F600
S2140808108504C0F20804A04741F23007C4F20E0768
S2140808203860484640F60D15C0F20805A8474FF050
S2140808301B00A04741F23406C4F20E06306040465C
S214080840A8474FF01B00A04738604846A8474FF017
S2140808501B00A04730604046A8474FF01B00A04743
S21408086038604846A8474FF01B00A0473060BDE8F0
S214080870F88300BF08B540F60D13C0F20803984782
S21408088008BD00BF4FF0010303FA00F0704700BF31
S21408089008B540F68503C0F2080398474FF4805120
S2140808A0C4F20E01086041F21002C4F20E02106093
S2140808B04FF48553C4F20E03186008BD10B54FF008
S2140808C01F0041F22D03C0F2080398474FF48044F6
S2140808D0C4F2080420464FF001014FF0000240F22F
S2140808E0CD23C0F20803984720464FF0000140F297
S2140808F0E922C0F20802904720464FF0010140F274
S214080900FD23C0F20803984710BD00BFF8B504469B
S2140809104FF48040C4F208004FF0010140F2F12382
S214080920C0F2080398474FF02A0707FB04F74FF46E
S2140809308044C4F208044FF0010640F20935C0F2BC
S214080940080520463146A847B842FAD34FF48040F7
S214080950C4F208004FF0010140F2FD22C0F208027E
S2140809609047F8BD10B54FF43D40C0F2015041F233
S214080970B533C0F2080398474FF000004FF03E0129
S21408098040F68D72C0F20802904740F6FD74C0F239
S2140809900804A0470028FCD041F20D00C0F2080069
S2140809A080474FF4C061C4F20E0143F60173C2F2E9
S2140809B00D038B6241F21D04C0F20804A04700280C
S2140809C0FCD04FF0100040F6ED62C0F208029047E7
S2140809D041F2ED10C0F2080080474FF43D40C0F2E7
S2140809E0015041F2B531C0F20801884710BD00BF7A
S2140809F010B541F65023C4F20E034FF400425A6075
S214080A004FF00B0041F22D04C0F20804A0474FF047
S214080A100C00A0474FF00D00A0474FF00E00A0476F
S214080A204FF03B004FF0605140F64144C0F20804D6
S214080A30A0474FF055004FF06051A0474FF05600C2
S214080A404FF06051A0474FF068004FF07901C2F6AA
S214080A500001A0474FF05C004FF00101C2F600010C
S214080A60A0474FF46060C4F20E004FF440714FF098
S214080A70006240F66533C0F20803984710BD00BF11
S214080A800AB1416670470166704700BF4264B1F11B
S214080A90805F16D004D8C9B1B1F1006F15D109E04E
S214080AA0B1F1405F12D0B1F1605F0FD0B1F1205FB5
S214080AB00BD17047036F016F0B4023EA02030367ED
S214080AC003E0036F42EA030101674260704700BF14
S214080AD041647047F8B504460D4616461F4640F66C
S214080AE0D123C0F20803984720462946069A40F6BE
S214080AF08123C0F2080398470FB1256500E06565B5
S214080B000EB1256300E0656325612560F8BD00BF6A
S214080B1070B504460D46164640F6D123C0F20803C3
S214080B2098472046294606F0010240F68123C0F27F
S214080B300803984716F00A0F14BF2562656216F078
S214080B40020F02D0C4F8805004E016F0080F18BF51
S214080B50C4F884506561256070BD00BFC06C7047DE
S214080B60806C7047F0B583B007460E46154602F00F
S214080B70F044B4F1205F36D006D8B4F1006F0AD03E
S214080B80B4F1805F4DD11AE0B4F1405F33D0B4F1D0
S214080B90605F46D12FE04FF00061324640F68D2365
S214080BA0C0F2080398473846314605F0010240F679
S214080BB08123C0F2080398474FF0010033E04FF056
S214080BC08051324640F68D23C0F2080398473846CF
S214080BD0314605F0010240F68123C0F20803984723
S214080BE04FF001001FE040F61133C0F208039847A3
S214080BF04FF0010017E005F0605205F00100009084
S214080C0038463146B2F1605F14BF00220122C5F3B0
S214080C10800340F6D524C0F20804A0474FF0010030
S214080C2001E04FF0000003B0F0BD00BF4FEA5010DF
S214080C3000F5001101F207724FEA4220704700BF24
S214080C40F0B583B007460D4640F62D43C0F20803BC
S214080C509847064605F0F044B4F1205F41D006D820
S214080C60B4F1006F0AD0B4F1805F62D120E0B4F12D
S214080C70405F44D0B4F1605F5BD140E007F01F00EE
S214080C804FF0010404FA00F730464FF000613A4688
S214080C9040F68D23C0F2080398473046394605EAE1
S214080CA0040240F68123C0F208039847204642E033
S214080CB007F01F074FF0010404FA07F74FF08051BA
S214080CC03A4640F68D23C0F2080398473046394620
S214080CD005EA040240F68123C0F208039847204636
S214080CE029E007F01F024FF0010404FA02F12A4631
S214080CF040F61133C0F20803984720461BE007F079
S214080D001F014FF0010405F0605205EA0400009048
S214080D10304604FA01F1B2F1605F14BF00220122E6
S214080D20C5F3800340F6D525C0F20805A847204637
S214080D3001E04FF0000003B0F0BD00BF70B50646F6
S214080D400C4640F65D33C0F2080398470546304621
S214080D5040F66131C0F208018847054000F08C80F3
S214080D6040F25440C2F207000068A0420CD140F29C
S214080D705442C2F2070251680D4205D01646D3689F
S214080D80984771688D4377D040F25440C2F2070006
S214080D900069A0420CD140F25442C2F207025169DF
S214080DA00D4205D01646D369984771698D4363D0BE
S214080DB040F25440C2F20700006AA0420CD140F24A
S214080DC05442C2F20702516A0D4205D01646D36A4B
S214080DD09847716A8D434FD040F25440C2F20700DC
S214080DE0006BA0420CD140F25442C2F20702516B8B
S214080DF00D4205D01646D36B9847716B8D433BD092
S214080E0040F25440C2F20700006CA0420CD140F2F7
S214080E105442C2F20702516C0D4205D01646D36CF6
S214080E209847716C8D4327D040F25440C2F20700B1
S214080E30006DA0420CD140F25442C2F20702516D36
S214080E400D4205D01646D36D9847716D8D4313D065
S214080E5040F25440C2F20700006EA0420CD140F2A5
S214080E605442C2F20702516E294205D040F254435A
S214080E70C2F20703DA6E904770BD00BF08B54FF49C
S214080E806060C4F20E004FF00B0140F63D53C0F20E
S214080E900803984708BD00BF08B54FF48050C4F251
S214080EA00E004FF00C0140F63D53C0F20803984779
S214080EB008BD00BF08B54FF49050C4F20E004FF0BE
S214080EC00D0140F63D53C0F20803984708BD00BF21
S214080ED008B54FF4A050C4F20E004FF00E0140F6CD
S214080EE03D53C0F20803984708BD00BF4FF4C063DF
S214080EF0C4F20E031A6B22F0700108431863986E4A
S214080F0010F0080F07D010E000F1FF33906E10F0D5
S214080F10080F38D009E04FF400604FF4C062C4F2FE
S214080F200E02916E11F0080FEED04FF4C061C4F2B5
S214080F300E010A6B22F0030343F002000863896E71
S214080F4011F0080F09D04FF00000704703F1FF3387
S214080F50916E11F0080F13D009E04FF400634FF4B8
S214080F60C062C4F20E02906E10F0080FEED04FF07A
S214080F70000070474FF0010070474FF001007047BF
S214080F80013BF0D1F9E7581ECBD1F3E788B14FF40F
S214080F90C061C4F20E01086A4FF6FC72CFF6C8624A
S214080FA002404FF00203C0F2371342EA0300086219
S214080FB070474FF4C063C4F20E031A6A22F45C103A
S214080FC020F0030242F45C1040F001024FEA01618F
S214080FD042EA114018624FF4C062C4F20E02936EE1
S214080FE013F0010FFBD04FF4C061C4F20E01086A7B
S214080FF040F09B7242F480330B6270474FF4C06334
S214081000C4F20E03986E00F4803070474FF4C06345
S214081010C4F20E034FF000529A6270474FF4C06352
S214081020C4F20E03986E00F0020070472C2835D8DC
S2140810301F2817D84FF4C061C4F20E018A694FF012
S214081040010303FA00F31A4093422AD04FF0010135
S21408105001FA00F04FF4C062C4F20E0210614FF0BD
S214081060000070474FF4C063C4F20E03D3F808219B
S214081070A0F120004FF0010101FA00F10A40914268
S21408108012D04FF0010303FA00F04FF4C062C4F226
S2140810900E02C2F800014FF0000070474FF0010042
S2140810A070474FF0000070474FF00000704700BFD1
S2140810B0FEE700BF38B540F20003C2F2070341F26C
S2140810C00072C0F208029A4203D040484049814262
S2140810D004D3404B404A9A4225D342E03F4D404C09
S2140810E0631B23F003054FF0000340F20002C2F230
S2140810F0070241F20071C0F2080105F10400C5F3C9
S21408110080045D589D5003F10403834255D1E0E7FF
S2140811105D589D5003F104035C589C5003F104038A
S2140811208342F5D1D5E72F4D2F49481B20F00304FD
S21408113040F23843C2F20703E2184FF00001501B92
S214081140A0F10400C0F3800445F8041F95422DD191
S21408115007E005F10403696005F108055960954242
S214081160F7D140F20005C0F2080525F0604222F0EB
S2140811707F014FF46D40CEF20000816005F16044B7
S214081180B4F5801F07D24FF46D43CEF200039D6876
S21408119045F000529A6041F25961C0F2080188474A
S2140811A041F27940C0F208008047FEE7002CD0D014
S2140811B045F8041F9542CCD1D3E7002CA8D05C583C
S2140811C09C5003F104038342A2D182E73804072027
S2140811D000000720C404072038040720040007205E
S2140811E03B04072034040720BF0407204FF4C063DD
S2140811F0C4F20E03186B00F00301032900F2B18055
S214081200DFE801F002144F4F41F61020C4F20E003A
S214081210416911F0800F40F20003C2F2070314BFC1
S2140812204FF400424FF4FA421A609AE04FF4C06353
S214081230C4F20E03186A10F0807F09D04FF4D85312
S214081240C0F2B70340F20002C2F20702136088E059
S2140812504FF41061C0F23D0140F20002C2F20702EC
S21408126011604FF4C063C4F20E03186A00F07001F0
S214081270102902D0202974D109E04FF49050C0F20A
S2140812807A0040F20001C2F20701086069E04FF4F4
S214081290D853C0F2B70340F20002C2F20702136046
S2140812A05FE04FF4C062C4F20E02136A13F0807F48
S2140812B009D04FF4D851C0F2B70140F20002C2F28A
S2140812C00702116027E04FF41060C0F23D0040F2BC
S2140812D00001C2F2070108604FF4C062C4F20E02B1
S2140812E0136A03F07000102802D0202813D109E0F2
S2140812F04FF49053C0F27A0340F20000C2F207009F
S214081300036008E04FF4D851C0F2B70140F200027B
S214081310C2F2070211604FF4C063C4F20E03186BE2
S21408132000F00301022913D14FF4C061C4F20E0184
S214081330886A896A40F20003C2F20703C0F30A40CB
S2140813401A6800FB0220C9B2B0FBF1F21A6008E086
S2140813504FF4E053C0F64E6340F20002C2F20702B2
S21408136013604FF4C062C4F20E02106B00F07001F6
S21408137070290ED140F20003C2F2070318684AF635
S214081380AB22CAF6AA22A2FB00014FEA5100186057
S21408139070474FF4C063C4F20E031A6B40F20000A5
S2140813A0C2F20700C2F30211036823FA01F30360CE
S2140813B0704700BF4EF6BF23C0F2211398420CD8E0
S2140813C04FF42063C4F20E034FF0000018604FF489
S2140813D04061C4F20E01086070474FF27F01C0F208
S2140813E0FA2188420CD84FF42060C4F20E004FF45D
S2140813F0807101604FF44062C4F20E0211607047BB
S21408140048F6FF73C0F2D03398420CD84FF42061E8
S214081410C4F20E014FF400720A604FF44063C4F23F
S2140814200E031A6070474BF2FF31C0F2C44188427F
S2140814300CD84FF42063C4F20E034FF440721A60BF
S2140814404FF44060C4F20E000260704744F67F23F3
S214081450C0F25D5398424FF42060C4F20E0094BF69
S2140814604FF480624FF4A06202604FF44061C4F209
S2140814700E010A60704700BF2DE9F84340F6F113E5
S214081480C0F20803984740F66510C0F20800804787
S21408149040F6BD01C0F20801884740F28152C0F20A
S2140814A00802904740F2A514C0F20804A04740F28C
S2140814B04575C0F20805A84740F21146C0F208066E
S2140814C0B0474FF01B0040F69107C0F20807B84730
S2140814D04FF45464C0F2030440F28D77C0F2080754
S2140814E04FF41F56C0F2090640F67505C0F2080507
S2140814F040F60109C0F2080944F24028C0F20F0875
S2140815002046B8473046A8472046C8473046A8472A
S2140815102046B8474046A84740F28D63C0F2080305
S2140815209847204640F60D11C0F20801884740F259
S2140815300400C2F20700006840F2A562C0F2080282
S2140815409047DDE710B582B04FF00000C4F20800FF
S2140815504FF0000140F22133C0F20803984701908B
S214081560019B4FF00004C4F20C04204640F2B5215B
S214081570C0F208018847204640F2C922C0F2080295
S214081580904740F20403C2F20703186002B010BD89
S2140815902DE9F8439846234B06461C680F46D4F8B0
S2140815A04801914618B904F5A670C4F84801416880
S2140815B01F2916DD1C4818B94FF0FF30BDE8F88320
S2140815C04FF4C870AFF300800028F5D0D4F848214F
S2140815D0002545600260C4F84801C0F88851C0F884
S2140815E08C51B6B14468012202FA04F2D0F8881188
S2140815F000EB84031143022EC3F88890C0F88811C4
S2140816001C46C3F8088104D1D0F88C311A43C0F8B8
S2140816108C2141688B1C4A1C40F8237042600020CD
S214081620BDE8F883D41608000000000070B5084B23
S214081630084C0025E01A841003EB8406043D1CB110
S21408164072599047013CF9E7BDE8704000F050B881
S214081650FC1608000017080038B50E4D0E4B00247F
S214081660E81A8510AC4205D00B4951F8242090475B
S2140816700134F7E700F032F80849094A541AA51069
S2140816800024AC4205D0054B53F8240080470134AB
S214081690F7E738BDE8160800E8160800E816080058
S2140816A0F0160800024B13B1024800F005B8704760
S2140816B0000000002D1608000146002002460346DA
S2140816C0FFF766BF0008040C020A060E0109050D9E
S2140816D0030B070F1000072043000000F8B500BFF3
S2140816E0F8BC08BC9E467047A51608006D010800A1
S2140816F0F8B500BFF8BC08BC9E4670474501080010
S21408170000093D00D2040000100007200000000079
S21408171000000000FC02072064030720CC03072013
S21408172000000000000000000000000000000000AC
S214081730000000000000000000000000000000009C
S21408174000000000D8160800000000000000000096
S214081750000000000000000000000000000000007C
S214081760000000000000000000000000000000006C
S214081770000000000000000000000000000000005C
S214081780000000000000000000000000000000004C
S214081790000000000000000000000000000000003C
S2140817A0000000000000000000000000000000002C
S2140817B0000000000000000001000000000000001B
S2140817C00E33CDAB34126DE6ECDE05000B000000E0
S2140817D000000000000000000000000000000000FC
S2140817E000000000000000000000000000000000EC
S2140817F000000000000000000000000000000000DC
S21408180000000000000000000000000000000000CB
S8040810B52E
